{
  "_format": "hh-sol-artifact-1",
  "contractName": "PropertyRegistry",
  "sourceName": "contracts/PropertyRegistry.sol",
  "abi": [
    {
      "anonymous": false,
      "inputs": [
        {
          "indexed": true,
          "internalType": "bytes32",
          "name": "propertyId",
          "type": "bytes32"
        },
        {
          "indexed": true,
          "internalType": "address",
          "name": "newOwner",
          "type": "address"
        }
      ],
      "name": "OwnershipTransferred",
      "type": "event"
    },
    {
      "anonymous": false,
      "inputs": [
        {
          "indexed": true,
          "internalType": "bytes32",
          "name": "propertyId",
          "type": "bytes32"
        },
        {
          "indexed": false,
          "internalType": "string",
          "name": "description",
          "type": "string"
        },
        {
          "indexed": true,
          "internalType": "address",
          "name": "owner",
          "type": "address"
        }
      ],
      "name": "PropertyRegistered",
      "type": "event"
    },
    {
      "inputs": [
        {
          "internalType": "bytes32",
          "name": "propertyId",
          "type": "bytes32"
        }
      ],
      "name": "getProperty",
      "outputs": [
        {
          "internalType": "string",
          "name": "",
          "type": "string"
        },
        {
          "internalType": "address",
          "name": "",
          "type": "address"
        }
      ],
      "stateMutability": "view",
      "type": "function"
    },
    {
      "inputs": [
        {
          "internalType": "bytes32",
          "name": "",
          "type": "bytes32"
        }
      ],
      "name": "properties",
      "outputs": [
        {
          "internalType": "string",
          "name": "description",
          "type": "string"
        },
        {
          "internalType": "address",
          "name": "owner",
          "type": "address"
        },
        {
          "internalType": "bool",
          "name": "exists",
          "type": "bool"
        }
      ],
      "stateMutability": "view",
      "type": "function"
    },
    {
      "inputs": [
        {
          "internalType": "bytes32",
          "name": "propertyId",
          "type": "bytes32"
        },
        {
          "internalType": "string",
          "name": "description",
          "type": "string"
        }
      ],
      "name": "registerProperty",
      "outputs": [],
      "stateMutability": "nonpayable",
      "type": "function"
    },
    {
      "inputs": [
        {
          "internalType": "bytes32",
          "name": "propertyId",
          "type": "bytes32"
        },
        {
          "internalType": "address",
          "name": "newOwner",
          "type": "address"
        }
      ],
      "name": "transferOwnership",
      "outputs": [],
      "stateMutability": "nonpayable",
      "type": "function"
    }
  ],
  "bytecode": "0x6080604052348015600f57600080fd5b50610db18061001f6000396000f3fe608060405234801561001057600080fd5b506004361061004c5760003560e01c8063463f7a8914610051578063bd15627314610082578063dd6bfee3146100b4578063ef5d6bbb146100d0575b600080fd5b61006b60048036038101906100669190610615565b6100ec565b604051610079929190610713565b60405180910390f35b61009c60048036038101906100979190610615565b610232565b6040516100ab9392919061075e565b60405180910390f35b6100ce60048036038101906100c991906108d1565b610311565b005b6100ea60048036038101906100e59190610959565b61042a565b005b6060600080600084815260200190815260200160002060010160149054906101000a900460ff16610152576040517f08c379a0000000000000000000000000000000000000000000000000000000008152600401610149906109e5565b60405180910390fd5b60008084815260200190815260200160002060000160008085815260200190815260200160002060010160009054906101000a900473ffffffffffffffffffffffffffffffffffffffff168180546101a990610a34565b80601f01602080910402602001604051908101604052809291908181526020018280546101d590610a34565b80156102225780601f106101f757610100808354040283529160200191610222565b820191906000526020600020905b81548152906001019060200180831161020557829003601f168201915b5050505050915091509150915091565b600060205280600052604060002060009150905080600001805461025590610a34565b80601f016020809104026020016040519081016040528092919081815260200182805461028190610a34565b80156102ce5780601f106102a3576101008083540402835291602001916102ce565b820191906000526020600020905b8154815290600101906020018083116102b157829003601f168201915b5050505050908060010160009054906101000a900473ffffffffffffffffffffffffffffffffffffffff16908060010160149054906101000a900460ff16905083565b60405180606001604052808281526020013373ffffffffffffffffffffffffffffffffffffffff16815260200160011515815250600080848152602001908152602001600020600082015181600001908161036c9190610c1b565b5060208201518160010160006101000a81548173ffffffffffffffffffffffffffffffffffffffff021916908373ffffffffffffffffffffffffffffffffffffffff16021790555060408201518160010160146101000a81548160ff0219169083151502179055509050503373ffffffffffffffffffffffffffffffffffffffff16827f9e4cf29209c204b81cfd1c06fb56198094e647f1f967e9a37b0b8b280e7cd6788360405161041e9190610ced565b60405180910390a35050565b60008083815260200190815260200160002060010160149054906101000a900460ff1661048c576040517f08c379a0000000000000000000000000000000000000000000000000000000008152600401610483906109e5565b60405180910390fd5b3373ffffffffffffffffffffffffffffffffffffffff1660008084815260200190815260200160002060010160009054906101000a900473ffffffffffffffffffffffffffffffffffffffff1673ffffffffffffffffffffffffffffffffffffffff161461052f576040517f08c379a000000000000000000000000000000000000000000000000000000000815260040161052690610d5b565b60405180910390fd5b8060008084815260200190815260200160002060010160006101000a81548173ffffffffffffffffffffffffffffffffffffffff021916908373ffffffffffffffffffffffffffffffffffffffff1602179055508073ffffffffffffffffffffffffffffffffffffffff16827f38e987295c3f08df382dd3a355c603cd120d9a3c709609490247a9a494b6048160405160405180910390a35050565b6000604051905090565b600080fd5b600080fd5b6000819050919050565b6105f2816105df565b81146105fd57600080fd5b50565b60008135905061060f816105e9565b92915050565b60006020828403121561062b5761062a6105d5565b5b600061063984828501610600565b91505092915050565b600081519050919050565b600082825260208201905092915050565b60005b8381101561067c578082015181840152602081019050610661565b60008484015250505050565b6000601f19601f8301169050919050565b60006106a482610642565b6106ae818561064d565b93506106be81856020860161065e565b6106c781610688565b840191505092915050565b600073ffffffffffffffffffffffffffffffffffffffff82169050919050565b60006106fd826106d2565b9050919050565b61070d816106f2565b82525050565b6000604082019050818103600083015261072d8185610699565b905061073c6020830184610704565b9392505050565b60008115159050919050565b61075881610743565b82525050565b600060608201905081810360008301526107788186610699565b90506107876020830185610704565b610794604083018461074f565b949350505050565b600080fd5b600080fd5b7f4e487b7100000000000000000000000000000000000000000000000000000000600052604160045260246000fd5b6107de82610688565b810181811067ffffffffffffffff821117156107fd576107fc6107a6565b5b80604052505050565b60006108106105cb565b905061081c82826107d5565b919050565b600067ffffffffffffffff82111561083c5761083b6107a6565b5b61084582610688565b9050602081019050919050565b82818337600083830152505050565b600061087461086f84610821565b610806565b9050828152602081018484840111156108905761088f6107a1565b5b61089b848285610852565b509392505050565b600082601f8301126108b8576108b761079c565b5b81356108c8848260208601610861565b91505092915050565b600080604083850312156108e8576108e76105d5565b5b60006108f685828601610600565b925050602083013567ffffffffffffffff811115610917576109166105da565b5b610923858286016108a3565b9150509250929050565b610936816106f2565b811461094157600080fd5b50565b6000813590506109538161092d565b92915050565b600080604083850312156109705761096f6105d5565b5b600061097e85828601610600565b925050602061098f85828601610944565b9150509250929050565b7f50726f706572747920646f6573206e6f74206578697374000000000000000000600082015250565b60006109cf60178361064d565b91506109da82610999565b602082019050919050565b600060208201905081810360008301526109fe816109c2565b9050919050565b7f4e487b7100000000000000000000000000000000000000000000000000000000600052602260045260246000fd5b60006002820490506001821680610a4c57607f821691505b602082108103610a5f57610a5e610a05565b5b50919050565b60008190508160005260206000209050919050565b60006020601f8301049050919050565b600082821b905092915050565b600060088302610ac77fffffffffffffffffffffffffffffffffffffffffffffffffffffffffffffffff82610a8a565b610ad18683610a8a565b95508019841693508086168417925050509392505050565b6000819050919050565b6000819050919050565b6000610b18610b13610b0e84610ae9565b610af3565b610ae9565b9050919050565b6000819050919050565b610b3283610afd565b610b46610b3e82610b1f565b848454610a97565b825550505050565b600090565b610b5b610b4e565b610b66818484610b29565b505050565b5b81811015610b8a57610b7f600082610b53565b600181019050610b6c565b5050565b601f821115610bcf57610ba081610a65565b610ba984610a7a565b81016020851015610bb8578190505b610bcc610bc485610a7a565b830182610b6b565b50505b505050565b600082821c905092915050565b6000610bf260001984600802610bd4565b1980831691505092915050565b6000610c0b8383610be1565b9150826002028217905092915050565b610c2482610642565b67ffffffffffffffff811115610c3d57610c3c6107a6565b5b610c478254610a34565b610c52828285610b8e565b600060209050601f831160018114610c855760008415610c73578287015190505b610c7d8582610bff565b865550610ce5565b601f198416610c9386610a65565b60005b82811015610cbb57848901518255600182019150602085019450602081019050610c96565b86831015610cd85784890151610cd4601f891682610be1565b8355505b6001600288020188555050505b505050505050565b60006020820190508181036000830152610d078184610699565b905092915050565b7f4e6f7420746865206f776e657200000000000000000000000000000000000000600082015250565b6000610d45600d8361064d565b9150610d5082610d0f565b602082019050919050565b60006020820190508181036000830152610d7481610d38565b905091905056fea26469706673582212200885fb824c57bec1509970d226758e83296dfab34402417b2549170c70963d0164736f6c634300081a0033",
  "linkReferences": {},
  "deployedLinkReferences": {}
}